{
  "_format": "hh-sol-artifact-1",
  "contractName": "MessageENS",
  "sourceName": "contracts/l1/MessageENS.sol",
  "abi": [
    {
      "inputs": [
        {
          "internalType": "address",
          "name": "starknet",
          "type": "address"
        },
        {
          "internalType": "contract IENS",
          "name": "ens",
          "type": "address"
        },
        {
          "internalType": "address",
          "name": "adminSigner",
          "type": "address"
        }
      ],
      "stateMutability": "nonpayable",
      "type": "constructor"
    },
    {
      "inputs": [
        {
          "internalType": "address",
          "name": "sender",
          "type": "address"
        },
        {
          "internalType": "string",
          "name": "name",
          "type": "string"
        },
        {
          "internalType": "uint256",
          "name": "ensname_low",
          "type": "uint256"
        },
        {
          "internalType": "uint256",
          "name": "ensname_high",
          "type": "uint256"
        },
        {
          "internalType": "bytes32",
          "name": "label",
          "type": "bytes32"
        },
        {
          "internalType": "address",
          "name": "owner",
          "type": "address"
        },
        {
          "internalType": "string",
          "name": "node",
          "type": "string"
        }
      ],
      "name": "InvalidENS",
      "type": "error"
    },
    {
      "inputs": [],
      "name": "InvalidOwner",
      "type": "error"
    },
    {
      "anonymous": false,
      "inputs": [
        {
          "indexed": false,
          "internalType": "string",
          "name": "name",
          "type": "string"
        },
        {
          "indexed": false,
          "internalType": "uint256",
          "name": "contract_address",
          "type": "uint256"
        },
        {
          "indexed": false,
          "internalType": "uint256",
          "name": "tokenid",
          "type": "uint256"
        }
      ],
      "name": "LogClaimL1NFT",
      "type": "event"
    },
    {
      "anonymous": false,
      "inputs": [
        {
          "indexed": false,
          "internalType": "string",
          "name": "name",
          "type": "string"
        },
        {
          "indexed": false,
          "internalType": "uint256",
          "name": "l2user_address",
          "type": "uint256"
        },
        {
          "indexed": false,
          "internalType": "uint256",
          "name": "tokenid",
          "type": "uint256"
        }
      ],
      "name": "LogClaimL2Object",
      "type": "event"
    },
    {
      "anonymous": false,
      "inputs": [
        {
          "indexed": true,
          "internalType": "address",
          "name": "l1Sender",
          "type": "address"
        },
        {
          "indexed": false,
          "internalType": "string",
          "name": "name",
          "type": "string"
        }
      ],
      "name": "LogCreatePhiland",
      "type": "event"
    },
    {
      "anonymous": false,
      "inputs": [
        {
          "indexed": true,
          "internalType": "address",
          "name": "operator",
          "type": "address"
        },
        {
          "indexed": true,
          "internalType": "address",
          "name": "target",
          "type": "address"
        }
      ],
      "name": "OwnershipGranted",
      "type": "event"
    },
    {
      "anonymous": false,
      "inputs": [
        {
          "indexed": true,
          "internalType": "address",
          "name": "operator",
          "type": "address"
        },
        {
          "indexed": true,
          "internalType": "address",
          "name": "target",
          "type": "address"
        }
      ],
      "name": "OwnershipRemoved",
      "type": "event"
    },
    {
      "inputs": [
        {
          "internalType": "string",
          "name": "name",
          "type": "string"
        }
      ],
      "name": "OwnerOfPhiland",
      "outputs": [
        {
          "internalType": "bool",
          "name": "",
          "type": "bool"
        }
      ],
      "stateMutability": "view",
      "type": "function"
    },
    {
      "inputs": [],
      "name": "baseNode",
      "outputs": [
        {
          "internalType": "bytes32",
          "name": "",
          "type": "bytes32"
        }
      ],
      "stateMutability": "view",
      "type": "function"
    },
    {
      "inputs": [
        {
          "internalType": "uint256",
          "name": "l2ContractAddress",
          "type": "uint256"
        },
        {
          "internalType": "string",
          "name": "name",
          "type": "string"
        },
        {
          "internalType": "uint256",
          "name": "l2UserAddress",
          "type": "uint256"
        },
        {
          "internalType": "uint256",
          "name": "tokenid",
          "type": "uint256"
        },
        {
          "internalType": "string",
          "name": "condition",
          "type": "string"
        },
        {
          "components": [
            {
              "internalType": "bytes32",
              "name": "r",
              "type": "bytes32"
            },
            {
              "internalType": "bytes32",
              "name": "s",
              "type": "bytes32"
            },
            {
              "internalType": "uint8",
              "name": "v",
              "type": "uint8"
            }
          ],
          "internalType": "struct MessageENS.Coupon",
          "name": "coupon",
          "type": "tuple"
        }
      ],
      "name": "claimL2Object",
      "outputs": [],
      "stateMutability": "nonpayable",
      "type": "function"
    },
    {
      "inputs": [
        {
          "internalType": "string",
          "name": "",
          "type": "string"
        }
      ],
      "name": "coupon_type",
      "outputs": [
        {
          "internalType": "uint256",
          "name": "",
          "type": "uint256"
        }
      ],
      "stateMutability": "view",
      "type": "function"
    },
    {
      "inputs": [
        {
          "internalType": "uint256",
          "name": "l2ContractAddress",
          "type": "uint256"
        },
        {
          "internalType": "string",
          "name": "name",
          "type": "string"
        }
      ],
      "name": "createPhiland",
      "outputs": [],
      "stateMutability": "nonpayable",
      "type": "function"
    },
    {
      "inputs": [
        {
          "internalType": "string",
          "name": "condition",
          "type": "string"
        }
      ],
      "name": "getCouponType",
      "outputs": [
        {
          "internalType": "uint256",
          "name": "",
          "type": "uint256"
        }
      ],
      "stateMutability": "view",
      "type": "function"
    },
    {
      "inputs": [
        {
          "internalType": "address",
          "name": "targetAddress",
          "type": "address"
        }
      ],
      "name": "owner",
      "outputs": [
        {
          "internalType": "bool",
          "name": "",
          "type": "bool"
        }
      ],
      "stateMutability": "nonpayable",
      "type": "function"
    },
    {
      "inputs": [
        {
          "internalType": "string",
          "name": "",
          "type": "string"
        }
      ],
      "name": "owner_lists",
      "outputs": [
        {
          "internalType": "address",
          "name": "",
          "type": "address"
        }
      ],
      "stateMutability": "view",
      "type": "function"
    },
    {
      "inputs": [
        {
          "internalType": "address",
          "name": "oldOwner",
          "type": "address"
        }
      ],
      "name": "removeOwner",
      "outputs": [],
      "stateMutability": "nonpayable",
      "type": "function"
    },
    {
      "inputs": [
        {
          "internalType": "string",
          "name": "condition",
          "type": "string"
        },
        {
          "internalType": "uint256",
          "name": "tokenid",
          "type": "uint256"
        }
      ],
      "name": "setCouponType",
      "outputs": [],
      "stateMutability": "nonpayable",
      "type": "function"
    },
    {
      "inputs": [
        {
          "internalType": "address",
          "name": "newOwner",
          "type": "address"
        }
      ],
      "name": "setOwner",
      "outputs": [],
      "stateMutability": "nonpayable",
      "type": "function"
    }
  ],
  "bytecode": "0x60806040527f93cdeb708b7545dc668eb9280176169d1c33cfd8ed6f04690a0bcc88a93fc4ae6007553480156200003557600080fd5b506040516200184d3803806200184d8339810160408190526200005891620000ce565b336000908152602081905260409020805460ff19166001179055600580546001600160a01b039485166001600160a01b03199182161790915560028054938516938216939093179092556003805491909316911617905562000122565b6001600160a01b0381168114620000cb57600080fd5b50565b600080600060608486031215620000e457600080fd5b8351620000f181620000b5565b60208501519093506200010481620000b5565b60408501519092506200011781620000b5565b809150509250925092565b61171b80620001326000396000f3fe608060405234801561001057600080fd5b50600436106100c95760003560e01c8063666e1b391161008157806392ca31801161005b57806392ca3180146101f5578063cb568fd414610208578063ddf7fcb01461021b57600080fd5b8063666e1b391461017d5780636a694543146101a957806373e1ed76146101e257600080fd5b806321ba0c39116100b257806321ba0c39146100f6578063238952901461014757806344127a221461016a57600080fd5b806313af4035146100ce578063173825d9146100e3575b600080fd5b6100e16100dc3660046110c9565b610224565b005b6100e16100f13660046110c9565b6102a1565b61012a6101043660046111b9565b80516020818301810180516006825292820191909301209152546001600160a01b031681565b6040516001600160a01b0390911681526020015b60405180910390f35b61015a6101553660046111b9565b61031b565b604051901515815260200161013e565b6100e1610178366004611237565b610365565b61015a61018b3660046110c9565b6001600160a01b031660009081526020819052604090205460ff1690565b6101d46101b73660046111b9565b805160208183018101805160088252928201919093012091525481565b60405190815260200161013e565b6100e16101f036600461130d565b61061d565b6101d4610203366004611354565b610bd3565b6100e1610216366004611396565b610bff565b6101d460075481565b3360009081526020819052604090205460ff16610254576040516349e27cff60e01b815260040160405180910390fd5b6001600160a01b038116600081815260208190526040808220805460ff191660011790555133917f619792ba07bec101df538ab277befa333e4cf1c0274f11de7be2a9507b9c9a0691a350565b3360009081526020819052604090205460ff166102d1576040516349e27cff60e01b815260040160405180910390fd5b6001600160a01b038116600081815260208190526040808220805460ff191690555133917fc191551a88c5609788f3532bd94c06479b61b0040eec65f9cd985428ffea643091a350565b6000806001600160a01b03166006836040516103379190611412565b908152604051908190036020019020546001600160a01b03161461035d57506001919050565b506000919050565b60006008848460405161037992919061142e565b908152604080519182900360209081018320549083015233908201526060016040516020818303038152906040528051906020012090506103ba8183610c57565b61040b5760405162461bcd60e51b815260206004820152600e60248201527f496e76616c696420636f75706f6e00000000000000000000000000000000000060448201526064015b60405180910390fd5b7f756309d50d14de758ee0c983da8b4e394a3986de39c60b5bd7c4d50c3a7b5e4987878760405161043e9392919061146a565b60405180910390a16000600754888051906020012060405160200161046d929190918252602082015260400190565b60408051601f198184030181528282528051602091820120600580855260c08501909352935083926fffffffffffffffffffffffffffffffff841692608085901c926000929190820160a08036833701905050905082816000815181106104d6576104d661148f565b60200260200101818152505081816001815181106104f6576104f661148f565b6020026020010181815250508a816002815181106105165761051661148f565b60209081029190910101526fffffffffffffffffffffffffffffffff8a1660808b901c8260038151811061054c5761054c61148f565b60200260200101836004815181106105665761056661148f565b6020026020010182815250828152505050600560009054906101000a90046001600160a01b03166001600160a01b0316633e3aa6c58e7f019abf98a7f3ca68a766727802291c225bd215e2976195a4596e93c69e390d5c846040518463ffffffff1660e01b81526004016105dc939291906114a5565b600060405180830381600087803b1580156105f657600080fd5b505af115801561060a573d6000803e3d6000fd5b5050505050505050505050505050505050565b60006106508260408051808201825260008082526020918201528151808301909252825182529182019181019190915290565b60408051808201825260018152601760f91b6020808301918252835180850185526000808252908201819052845180860190955292518452830152919250906106998383610d3f565b6106a4906001611510565b67ffffffffffffffff8111156106bc576106bc6110ed565b6040519080825280602002602001820160405280156106ef57816020015b60608152602001906001900390816106da5790505b50905060005b81518110156107405761071061070b8585610de0565b610dff565b8282815181106107225761072261148f565b6020026020010181905250808061073890611528565b9150506106f5565b50600081516001141561078f576007548580519060200120604051602001610772929190918252602082015260400190565b6040516020818303038152906040528051906020012090506108e0565b60006001835161079f9190611543565b90505b80156108de57600183516107b69190611543565b811415610818576007548382815181106107d2576107d261148f565b6020026020010151805190602001206040516020016107fb929190918252602082015260400190565b60405160208183030381529060405280519060200120915061086d565b8183828151811061082b5761082b61148f565b602002602001015180519060200120604051602001610854929190918252602082015260400190565b6040516020818303038152906040528051906020012091505b80600114156108cc57818360008151811061088a5761088a61148f565b6020026020010151805190602001206040516020016108b3929190918252602082015260400190565b6040516020818303038152906040528051906020012091505b806108d68161155a565b9150506107a2565b505b806000806fffffffffffffffffffffffffffffffff8316608084901c6002546040516302571be360e01b8152600481018890529294509092506001600160a01b0316906302571be39060240160206040518083038186803b15801561094457600080fd5b505afa158015610958573d6000803e3d6000fd5b505050506040513d601f19601f8201168201806040525081019061097c9190611571565b6001600160a01b0316336001600160a01b031614610a51576002546040516302571be360e01b81526004810186905233918a918591859189916001600160a01b0316906302571be39060240160206040518083038186803b1580156109e057600080fd5b505afa1580156109f4573d6000803e3d6000fd5b505050506040513d601f19601f82011682018060405250810190610a189190611571565b60408051602081018b90520160408051601f1981840301815290829052631606072b60e11b82526104029796959493929160040161158e565b33600689604051610a629190611412565b90815260405190819003602001812080546001600160a01b03939093167fffffffffffffffffffffffff00000000000000000000000000000000000000009093169290921790915533907f55da0857a5df23f43c9be98b1707bc6a2d42d5ec8ee76089999c188f8afcf86190610ad9908b906115ec565b60405180910390a26040805160028082526060820183526000926020830190803683370190505090508281600081518110610b1657610b1661148f565b6020026020010181815250508181600181518110610b3657610b3661148f565b6020908102919091010152600554604051633e3aa6c560e01b81526001600160a01b0390911690633e3aa6c590610b95908d907f015d440da00174932e75c914a115fe86cef6733037ac9545465f34a87daf9b3d9086906004016114a5565b600060405180830381600087803b158015610baf57600080fd5b505af1158015610bc3573d6000803e3d6000fd5b5050505050505050505050505050565b600060088383604051610be792919061142e565b90815260200160405180910390205490505b92915050565b3360009081526020819052604090205460ff16610c2f576040516349e27cff60e01b815260040160405180910390fd5b8060088484604051610c4292919061142e565b90815260405190819003602001902055505050565b60008060018484604001518560000151866020015160405160008152602001604052604051610ca2949392919093845260ff9290921660208401526040830152606082015260800190565b6020604051602081039080840390855afa158015610cc4573d6000803e3d6000fd5b5050604051601f1901519150506001600160a01b038116610d275760405162461bcd60e51b815260206004820152601860248201527f45434453413a20696e76616c6964207369676e617475726500000000000000006044820152606401610402565b6003546001600160a01b039081169116149392505050565b6000808260000151610d638560000151866020015186600001518760200151610e68565b610d6d9190611510565b90505b83516020850151610d819190611510565b8111610dd95781610d9181611528565b9250508260000151610dc8856020015183610dac9190611543565b8651610db89190611543565b8386600001518760200151610e68565b610dd29190611510565b9050610d70565b5092915050565b6040805180820190915260008082526020820152610dd9838383610f8b565b60606000826000015167ffffffffffffffff811115610e2057610e206110ed565b6040519080825280601f01601f191660200182016040528015610e4a576020820181803683370190505b5090506000602082019050610dd98185602001518660000151611037565b60008381868511610f745760208511610f225760008515610eb4576001610e90876020611543565b610e9b9060086115ff565b610ea6906002611702565b610eb09190611543565b1990505b84518116600087610ec58b8b611510565b610ecf9190611543565b855190915083165b828114610f1457818610610efc57610eef8b8b611510565b9650505050505050610f83565b85610f0681611528565b965050838651169050610ed7565b859650505050505050610f83565b508383206000905b610f348689611543565b8211610f725785832081811415610f515783945050505050610f83565b610f5c600185611510565b9350508180610f6a90611528565b925050610f2a565b505b610f7e8787611510565b925050505b949350505050565b60408051808201909152600080825260208201526000610fbd8560000151866020015186600001518760200151610e68565b602080870180519186019190915251909150610fd99082611543565b835284516020860151610fec9190611510565b811415610ffc576000855261102e565b8351835161100a9190611510565b85518690611019908390611543565b90525083516110289082611510565b60208601525b50909392505050565b6020811061106f578151835261104e602084611510565b925061105b602083611510565b9150611068602082611543565b9050611037565b600019811561109e576001611085836020611543565b61109190610100611702565b61109b9190611543565b90505b9151835183169219169190911790915250565b6001600160a01b03811681146110c657600080fd5b50565b6000602082840312156110db57600080fd5b81356110e6816110b1565b9392505050565b634e487b7160e01b600052604160045260246000fd5b6040516060810167ffffffffffffffff81118282101715611126576111266110ed565b60405290565b600082601f83011261113d57600080fd5b813567ffffffffffffffff80821115611158576111586110ed565b604051601f8301601f19908116603f01168101908282118183101715611180576111806110ed565b8160405283815286602085880101111561119957600080fd5b836020870160208301376000602085830101528094505050505092915050565b6000602082840312156111cb57600080fd5b813567ffffffffffffffff8111156111e257600080fd5b610f838482850161112c565b60008083601f84011261120057600080fd5b50813567ffffffffffffffff81111561121857600080fd5b60208301915083602082850101111561123057600080fd5b9250929050565b600080600080600080600087890361010081121561125457600080fd5b88359750602089013567ffffffffffffffff8082111561127357600080fd5b61127f8c838d0161112c565b985060408b0135975060608b0135965060808b01359150808211156112a357600080fd5b506112b08b828c016111ee565b9095509350506060609f19820112156112c857600080fd5b506112d1611103565b60a0890135815260c0890135602082015260e089013560ff811681146112f657600080fd5b806040830152508091505092959891949750929550565b6000806040838503121561132057600080fd5b82359150602083013567ffffffffffffffff81111561133e57600080fd5b61134a8582860161112c565b9150509250929050565b6000806020838503121561136757600080fd5b823567ffffffffffffffff81111561137e57600080fd5b61138a858286016111ee565b90969095509350505050565b6000806000604084860312156113ab57600080fd5b833567ffffffffffffffff8111156113c257600080fd5b6113ce868287016111ee565b909790965060209590950135949350505050565b60005b838110156113fd5781810151838201526020016113e5565b8381111561140c576000848401525b50505050565b600082516114248184602087016113e2565b9190910192915050565b8183823760009101908152919050565b600081518084526114568160208601602086016113e2565b601f01601f19169290920160200192915050565b60608152600061147d606083018661143e565b60208301949094525060400152919050565b634e487b7160e01b600052603260045260246000fd5b6000606082018583526020858185015260606040850152818551808452608086019150828701935060005b818110156114ec578451835293830193918301916001016114d0565b509098975050505050505050565b634e487b7160e01b600052601160045260246000fd5b60008219821115611523576115236114fa565b500190565b600060001982141561153c5761153c6114fa565b5060010190565b600082821015611555576115556114fa565b500390565b600081611569576115696114fa565b506000190190565b60006020828403121561158357600080fd5b81516110e6816110b1565b60006001600160a01b03808a16835260e060208401526115b160e084018a61143e565b88604085015287606085015286608085015281861660a085015283810360c08501526115dd818661143e565b9b9a5050505050505050505050565b6020815260006110e6602083018461143e565b6000816000190483118215151615611619576116196114fa565b500290565b600181815b8085111561165957816000190482111561163f5761163f6114fa565b8085161561164c57918102915b93841c9390800290611623565b509250929050565b60008261167057506001610bf9565b8161167d57506000610bf9565b8160018114611693576002811461169d576116b9565b6001915050610bf9565b60ff8411156116ae576116ae6114fa565b50506001821b610bf9565b5060208310610133831016604e8410600b84101617156116dc575081810a610bf9565b6116e6838361161e565b80600019048211156116fa576116fa6114fa565b029392505050565b60006110e6838361166156fea164736f6c6343000808000a",
  "linkReferences": {},
  "deployedLinkReferences": {}
}